{
  "contractName": "Astropets",
  "abi": [
    {
      "inputs": [],
      "stateMutability": "nonpayable",
      "type": "constructor"
    },
    {
      "anonymous": false,
      "inputs": [
        {
          "indexed": true,
          "internalType": "address",
          "name": "owner",
          "type": "address"
        },
        {
          "indexed": true,
          "internalType": "address",
          "name": "approved",
          "type": "address"
        },
        {
          "indexed": true,
          "internalType": "uint256",
          "name": "tokenId",
          "type": "uint256"
        }
      ],
      "name": "Approval",
      "type": "event"
    },
    {
      "anonymous": false,
      "inputs": [
        {
          "indexed": true,
          "internalType": "address",
          "name": "owner",
          "type": "address"
        },
        {
          "indexed": true,
          "internalType": "address",
          "name": "operator",
          "type": "address"
        },
        {
          "indexed": false,
          "internalType": "bool",
          "name": "approved",
          "type": "bool"
        }
      ],
      "name": "ApprovalForAll",
      "type": "event"
    },
    {
      "anonymous": false,
      "inputs": [
        {
          "indexed": true,
          "internalType": "address",
          "name": "previousOwner",
          "type": "address"
        },
        {
          "indexed": true,
          "internalType": "address",
          "name": "newOwner",
          "type": "address"
        }
      ],
      "name": "OwnershipTransferred",
      "type": "event"
    },
    {
      "anonymous": false,
      "inputs": [
        {
          "indexed": true,
          "internalType": "address",
          "name": "from",
          "type": "address"
        },
        {
          "indexed": true,
          "internalType": "address",
          "name": "to",
          "type": "address"
        },
        {
          "indexed": true,
          "internalType": "uint256",
          "name": "tokenId",
          "type": "uint256"
        }
      ],
      "name": "Transfer",
      "type": "event"
    },
    {
      "inputs": [],
      "name": "_baseURL",
      "outputs": [
        {
          "internalType": "string",
          "name": "",
          "type": "string"
        }
      ],
      "stateMutability": "view",
      "type": "function"
    },
    {
      "inputs": [],
      "name": "_provenanceHash",
      "outputs": [
        {
          "internalType": "string",
          "name": "",
          "type": "string"
        }
      ],
      "stateMutability": "view",
      "type": "function"
    },
    {
      "inputs": [
        {
          "internalType": "address",
          "name": "to",
          "type": "address"
        },
        {
          "internalType": "uint256",
          "name": "tokenId",
          "type": "uint256"
        }
      ],
      "name": "approve",
      "outputs": [],
      "stateMutability": "nonpayable",
      "type": "function"
    },
    {
      "inputs": [
        {
          "internalType": "address",
          "name": "owner",
          "type": "address"
        }
      ],
      "name": "balanceOf",
      "outputs": [
        {
          "internalType": "uint256",
          "name": "",
          "type": "uint256"
        }
      ],
      "stateMutability": "view",
      "type": "function"
    },
    {
      "inputs": [
        {
          "internalType": "uint256",
          "name": "tokenId",
          "type": "uint256"
        }
      ],
      "name": "getApproved",
      "outputs": [
        {
          "internalType": "address",
          "name": "",
          "type": "address"
        }
      ],
      "stateMutability": "view",
      "type": "function"
    },
    {
      "inputs": [
        {
          "internalType": "address",
          "name": "owner",
          "type": "address"
        },
        {
          "internalType": "address",
          "name": "operator",
          "type": "address"
        }
      ],
      "name": "isApprovedForAll",
      "outputs": [
        {
          "internalType": "bool",
          "name": "",
          "type": "bool"
        }
      ],
      "stateMutability": "view",
      "type": "function"
    },
    {
      "inputs": [],
      "name": "name",
      "outputs": [
        {
          "internalType": "string",
          "name": "",
          "type": "string"
        }
      ],
      "stateMutability": "view",
      "type": "function"
    },
    {
      "inputs": [],
      "name": "owner",
      "outputs": [
        {
          "internalType": "address",
          "name": "",
          "type": "address"
        }
      ],
      "stateMutability": "view",
      "type": "function"
    },
    {
      "inputs": [
        {
          "internalType": "uint256",
          "name": "tokenId",
          "type": "uint256"
        }
      ],
      "name": "ownerOf",
      "outputs": [
        {
          "internalType": "address",
          "name": "",
          "type": "address"
        }
      ],
      "stateMutability": "view",
      "type": "function"
    },
    {
      "inputs": [],
      "name": "renounceOwnership",
      "outputs": [],
      "stateMutability": "nonpayable",
      "type": "function"
    },
    {
      "inputs": [
        {
          "internalType": "address",
          "name": "from",
          "type": "address"
        },
        {
          "internalType": "address",
          "name": "to",
          "type": "address"
        },
        {
          "internalType": "uint256",
          "name": "tokenId",
          "type": "uint256"
        }
      ],
      "name": "safeTransferFrom",
      "outputs": [],
      "stateMutability": "nonpayable",
      "type": "function"
    },
    {
      "inputs": [
        {
          "internalType": "address",
          "name": "from",
          "type": "address"
        },
        {
          "internalType": "address",
          "name": "to",
          "type": "address"
        },
        {
          "internalType": "uint256",
          "name": "tokenId",
          "type": "uint256"
        },
        {
          "internalType": "bytes",
          "name": "_data",
          "type": "bytes"
        }
      ],
      "name": "safeTransferFrom",
      "outputs": [],
      "stateMutability": "nonpayable",
      "type": "function"
    },
    {
      "inputs": [
        {
          "internalType": "address",
          "name": "operator",
          "type": "address"
        },
        {
          "internalType": "bool",
          "name": "approved",
          "type": "bool"
        }
      ],
      "name": "setApprovalForAll",
      "outputs": [],
      "stateMutability": "nonpayable",
      "type": "function"
    },
    {
      "inputs": [
        {
          "internalType": "bytes4",
          "name": "interfaceId",
          "type": "bytes4"
        }
      ],
      "name": "supportsInterface",
      "outputs": [
        {
          "internalType": "bool",
          "name": "",
          "type": "bool"
        }
      ],
      "stateMutability": "view",
      "type": "function"
    },
    {
      "inputs": [],
      "name": "symbol",
      "outputs": [
        {
          "internalType": "string",
          "name": "",
          "type": "string"
        }
      ],
      "stateMutability": "view",
      "type": "function"
    },
    {
      "inputs": [
        {
          "internalType": "uint256",
          "name": "tokenId",
          "type": "uint256"
        }
      ],
      "name": "tokenURI",
      "outputs": [
        {
          "internalType": "string",
          "name": "",
          "type": "string"
        }
      ],
      "stateMutability": "view",
      "type": "function"
    },
    {
      "inputs": [
        {
          "internalType": "address",
          "name": "from",
          "type": "address"
        },
        {
          "internalType": "address",
          "name": "to",
          "type": "address"
        },
        {
          "internalType": "uint256",
          "name": "tokenId",
          "type": "uint256"
        }
      ],
      "name": "transferFrom",
      "outputs": [],
      "stateMutability": "nonpayable",
      "type": "function"
    },
    {
      "inputs": [
        {
          "internalType": "address",
          "name": "newOwner",
          "type": "address"
        }
      ],
      "name": "transferOwnership",
      "outputs": [],
      "stateMutability": "nonpayable",
      "type": "function"
    },
    {
      "inputs": [
        {
          "internalType": "uint256",
          "name": "count",
          "type": "uint256"
        }
      ],
      "name": "mint",
      "outputs": [],
      "stateMutability": "payable",
      "type": "function"
    },
    {
      "inputs": [
        {
          "internalType": "string",
          "name": "provenanceHash",
          "type": "string"
        }
      ],
      "name": "setProvenanceHash",
      "outputs": [],
      "stateMutability": "nonpayable",
      "type": "function"
    },
    {
      "inputs": [
        {
          "internalType": "string",
          "name": "baseURI",
          "type": "string"
        }
      ],
      "name": "setBaseURL",
      "outputs": [],
      "stateMutability": "nonpayable",
      "type": "function"
    },
    {
      "inputs": [],
      "name": "maxSupply",
      "outputs": [
        {
          "internalType": "uint256",
          "name": "",
          "type": "uint256"
        }
      ],
      "stateMutability": "view",
      "type": "function"
    },
    {
      "inputs": [],
      "name": "totalSupply",
      "outputs": [
        {
          "internalType": "uint256",
          "name": "",
          "type": "uint256"
        }
      ],
      "stateMutability": "view",
      "type": "function"
    }
  ],
  "bytecode": "0x60806040526127106008553480156200001757600080fd5b50604080518082018252600981527f417374726f70657473000000000000000000000000000000000000000000000060208083019182528351808501909452600484527f4153505400000000000000000000000000000000000000000000000000000000908401528151919291620000929160009162000133565b508051620000a890600190602084019062000133565b505050620000d7620000c8620000dd640100000000026401000000009004565b640100000000620000e1810204565b6200022f565b3390565b60068054600160a060020a03838116600160a060020a0319831681179093556040519116919082907f8be0079c531659141344cd1fd0a4f28419497f9722a3daafe3b4186f6b6457e090600090a35050565b8280546200014190620001d9565b90600052602060002090601f016020900481019282620001655760008555620001b0565b82601f106200018057805160ff1916838001178555620001b0565b82800160010185558215620001b0579182015b82811115620001b057825182559160200191906001019062000193565b50620001be929150620001c2565b5090565b5b80821115620001be5760008155600101620001c3565b600281046001821680620001ee57607f821691505b6020821081141562000229577f4e487b7100000000000000000000000000000000000000000000000000000000600052602260045260246000fd5b50919050565b611dcb806200023f6000396000f3fe60806040526004361061015d576000357c01000000000000000000000000000000000000000000000000000000009004806370a08231116100d3578063b88d4fde1161008c578063b88d4fde14610386578063c87b56dd146103a6578063d5abeb01146103c6578063e985e9c5146103db578063f2fde38b14610424578063f9e0edae1461044457600080fd5b806370a08231146102eb578063715018a61461030b5780638da5cb5b1461032057806395d89b411461033e578063a0712d6814610353578063a22cb4651461036657600080fd5b806318160ddd1161012557806318160ddd1461023357806323b872dd1461025657806342842e0e1461027657806349f2553a14610296578063534308cc146102b65780636352211e146102cb57600080fd5b806301ffc9a71461016257806306fdde0314610197578063081812fc146101b9578063095ea7b3146101f15780631096952314610213575b600080fd5b34801561016e57600080fd5b5061018261017d3660046119eb565b610459565b60405190151581526020015b60405180910390f35b3480156101a357600080fd5b506101ac6104f6565b60405161018e9190611b1e565b3480156101c557600080fd5b506101d96101d4366004611a6e565b610588565b604051600160a060020a03909116815260200161018e565b3480156101fd57600080fd5b5061021161020c3660046119c1565b610636565b005b34801561021f57600080fd5b5061021161022e366004611a25565b61076e565b34801561023f57600080fd5b506102486107b2565b60405190815260200161018e565b34801561026257600080fd5b506102116102713660046118cd565b6107c2565b34801561028257600080fd5b506102116102913660046118cd565b6107f6565b3480156102a257600080fd5b506102116102b1366004611a25565b610811565b3480156102c257600080fd5b506101ac610851565b3480156102d757600080fd5b506101d96102e6366004611a6e565b6108df565b3480156102f757600080fd5b5061024861030636600461187f565b61096d565b34801561031757600080fd5b50610211610a0a565b34801561032c57600080fd5b50600654600160a060020a03166101d9565b34801561034a57600080fd5b506101ac610a43565b610211610361366004611a6e565b610a52565b34801561037257600080fd5b50610211610381366004611985565b610cae565b34801561039257600080fd5b506102116103a1366004611909565b610d76565b3480156103b257600080fd5b506101ac6103c1366004611a6e565b610db1565b3480156103d257600080fd5b50600854610248565b3480156103e757600080fd5b506101826103f636600461189a565b600160a060020a03918216600090815260056020908152604080832093909416825291909152205460ff1690565b34801561043057600080fd5b5061021161043f36600461187f565b610e9d565b34801561045057600080fd5b506101ac610f55565b6000600160e060020a031982167f80ac58cd0000000000000000000000000000000000000000000000000000000014806104bc5750600160e060020a031982167f5b5e139f00000000000000000000000000000000000000000000000000000000145b806104f057507f01ffc9a700000000000000000000000000000000000000000000000000000000600160e060020a03198316145b92915050565b60606000805461050590611cae565b80601f016020809104026020016040519081016040528092919081815260200182805461053190611cae565b801561057e5780601f106105535761010080835404028352916020019161057e565b820191906000526020600020905b81548152906001019060200180831161056157829003601f168201915b5050505050905090565b600081815260026020526040812054600160a060020a031661061a5760405160e560020a62461bcd02815260206004820152602c60248201527f4552433732313a20617070726f76656420717565727920666f72206e6f6e657860448201527f697374656e7420746f6b656e000000000000000000000000000000000000000060648201526084015b60405180910390fd5b50600090815260046020526040902054600160a060020a031690565b6000610641826108df565b905080600160a060020a031683600160a060020a031614156106ce5760405160e560020a62461bcd02815260206004820152602160248201527f4552433732313a20617070726f76616c20746f2063757272656e74206f776e6560448201527f72000000000000000000000000000000000000000000000000000000000000006064820152608401610611565b33600160a060020a03821614806106ea57506106ea81336103f6565b61075f5760405160e560020a62461bcd02815260206004820152603860248201527f4552433732313a20617070726f76652063616c6c6572206973206e6f74206f7760448201527f6e6572206e6f7220617070726f76656420666f7220616c6c00000000000000006064820152608401610611565b6107698383610f62565b505050565b600654600160a060020a0316331461079b5760405160e560020a62461bcd02815260040161061190611b8e565b80516107ae906009906020840190611754565b5050565b60006107bd60075490565b905090565b6107cc3382610fdd565b6107eb5760405160e560020a62461bcd02815260040161061190611bc3565b6107698383836110e8565b61076983838360405180602001604052806000815250610d76565b600654600160a060020a0316331461083e5760405160e560020a62461bcd02815260040161061190611b8e565b80516107ae90600a906020840190611754565b6009805461085e90611cae565b80601f016020809104026020016040519081016040528092919081815260200182805461088a90611cae565b80156108d75780601f106108ac576101008083540402835291602001916108d7565b820191906000526020600020905b8154815290600101906020018083116108ba57829003601f168201915b505050505081565b600081815260026020526040812054600160a060020a0316806104f05760405160e560020a62461bcd02815260206004820152602960248201527f4552433732313a206f776e657220717565727920666f72206e6f6e657869737460448201527f656e7420746f6b656e00000000000000000000000000000000000000000000006064820152608401610611565b6000600160a060020a0382166109ee5760405160e560020a62461bcd02815260206004820152602a60248201527f4552433732313a2062616c616e636520717565727920666f7220746865207a6560448201527f726f2061646472657373000000000000000000000000000000000000000000006064820152608401610611565b50600160a060020a031660009081526003602052604090205490565b600654600160a060020a03163314610a375760405160e560020a62461bcd02815260040161061190611b8e565b610a4160006112c8565b565b60606001805461050590611cae565b60085460075410610ace5760405160e560020a62461bcd02815260206004820152602160248201527f43616e206e6f74206d696e74206d6f7265207468616e206d617820737570706c60448201527f79000000000000000000000000000000000000000000000000000000000000006064820152608401610611565b600081118015610adf575060148111155b610b545760405160e560020a62461bcd02815260206004820152602560248201527f596f752063616e206d696e74206265747765656e203120616e6420323020617460448201527f206f6e63650000000000000000000000000000000000000000000000000000006064820152608401610611565b610b6581666a94d74f430000611c4c565b341015610bb75760405160e560020a62461bcd02815260206004820152601460248201527f496e73756666696369656e74207061796d656e740000000000000000000000006044820152606401610611565b60005b81811015610bf457610bd0600780546001019055565b610be233610bdd60075490565b611327565b80610bec81611cec565b915050610bba565b506000610c09600654600160a060020a031690565b600160a060020a03163460405160006040518083038185875af1925050503d8060008114610c53576040519150601f19603f3d011682016040523d82523d6000602084013e610c58565b606091505b505080915050806107ae5760405160e560020a62461bcd02815260206004820152601760248201527f4661696c656420746f2073656e6420746f206f776e65720000000000000000006044820152606401610611565b600160a060020a038216331415610d0a5760405160e560020a62461bcd02815260206004820152601960248201527f4552433732313a20617070726f766520746f2063616c6c6572000000000000006044820152606401610611565b336000818152600560209081526040808320600160a060020a03871680855290835292819020805460ff191686151590811790915590519081529192917f17307eab39ab6107e8899845ad3d59bd9653f200f220920489ca2b5937696c31910160405180910390a35050565b610d803383610fdd565b610d9f5760405160e560020a62461bcd02815260040161061190611bc3565b610dab8484848461147c565b50505050565b600081815260026020526040902054606090600160a060020a0316610e415760405160e560020a62461bcd02815260206004820152602f60248201527f4552433732314d657461646174613a2055524920717565727920666f72206e6f60448201527f6e6578697374656e7420746f6b656e00000000000000000000000000000000006064820152608401610611565b6000610e4b6114b2565b90506000815111610e6b5760405180602001604052806000815250610e96565b80610e75846114c1565b604051602001610e86929190611ab3565b6040516020818303038152906040525b9392505050565b600654600160a060020a03163314610eca5760405160e560020a62461bcd02815260040161061190611b8e565b600160a060020a038116610f495760405160e560020a62461bcd02815260206004820152602660248201527f4f776e61626c653a206e6577206f776e657220697320746865207a65726f206160448201527f64647265737300000000000000000000000000000000000000000000000000006064820152608401610611565b610f52816112c8565b50565b600a805461085e90611cae565b6000818152600460205260409020805473ffffffffffffffffffffffffffffffffffffffff1916600160a060020a0384169081179091558190610fa4826108df565b600160a060020a03167f8c5be1e5ebec7d5bd14f71427d1e84f3dd0314c0f7b2291e5b200ac8c7c3b92560405160405180910390a45050565b600081815260026020526040812054600160a060020a031661106a5760405160e560020a62461bcd02815260206004820152602c60248201527f4552433732313a206f70657261746f7220717565727920666f72206e6f6e657860448201527f697374656e7420746f6b656e00000000000000000000000000000000000000006064820152608401610611565b6000611075836108df565b905080600160a060020a031684600160a060020a031614806110b0575083600160a060020a03166110a584610588565b600160a060020a0316145b806110e05750600160a060020a0380821660009081526005602090815260408083209388168352929052205460ff165b949350505050565b82600160a060020a03166110fb826108df565b600160a060020a03161461117a5760405160e560020a62461bcd02815260206004820152602960248201527f4552433732313a207472616e73666572206f6620746f6b656e2074686174206960448201527f73206e6f74206f776e00000000000000000000000000000000000000000000006064820152608401610611565b600160a060020a0382166111f85760405160e560020a62461bcd028152602060048201526024808201527f4552433732313a207472616e7366657220746f20746865207a65726f2061646460448201527f72657373000000000000000000000000000000000000000000000000000000006064820152608401610611565b611203600082610f62565b600160a060020a038316600090815260036020526040812080546001929061122c908490611c6b565b9091555050600160a060020a038216600090815260036020526040812080546001929061125a908490611c20565b9091555050600081815260026020526040808220805473ffffffffffffffffffffffffffffffffffffffff1916600160a060020a0386811691821790925591518493918716917fddf252ad1be2c89b69c2b068fc378daa952ba7f163c4a11628f55a4df523b3ef91a4505050565b60068054600160a060020a0383811673ffffffffffffffffffffffffffffffffffffffff19831681179093556040519116919082907f8be0079c531659141344cd1fd0a4f28419497f9722a3daafe3b4186f6b6457e090600090a35050565b600160a060020a0382166113805760405160e560020a62461bcd02815260206004820181905260248201527f4552433732313a206d696e7420746f20746865207a65726f20616464726573736044820152606401610611565b600081815260026020526040902054600160a060020a0316156113e85760405160e560020a62461bcd02815260206004820152601c60248201527f4552433732313a20746f6b656e20616c7265616479206d696e746564000000006044820152606401610611565b600160a060020a0382166000908152600360205260408120805460019290611411908490611c20565b9091555050600081815260026020526040808220805473ffffffffffffffffffffffffffffffffffffffff1916600160a060020a03861690811790915590518392907fddf252ad1be2c89b69c2b068fc378daa952ba7f163c4a11628f55a4df523b3ef908290a45050565b6114878484846110e8565b61149384848484611612565b610dab5760405160e560020a62461bcd02815260040161061190611b31565b6060600a805461050590611cae565b60608161150157505060408051808201909152600181527f3000000000000000000000000000000000000000000000000000000000000000602082015290565b8160005b811561152b578061151581611cec565b91506115249050600a83611c38565b9150611505565b60008167ffffffffffffffff81111561154657611546611d66565b6040519080825280601f01601f191660200182016040528015611570576020820181803683370190505b5090505b84156110e057611585600183611c6b565b9150611592600a86611d07565b61159d906030611c20565b7f0100000000000000000000000000000000000000000000000000000000000000028183815181106115d1576115d1611d4d565b60200101907effffffffffffffffffffffffffffffffffffffffffffffffffffffffffffff1916908160001a90535061160b600a86611c38565b9450611574565b6000600160a060020a0384163b15611749576040517f150b7a02000000000000000000000000000000000000000000000000000000008152600160a060020a0385169063150b7a029061166f903390899088908890600401611ae2565b602060405180830381600087803b15801561168957600080fd5b505af19250505080156116b9575060408051601f3d908101601f191682019092526116b691810190611a08565b60015b611716573d8080156116e7576040519150601f19603f3d011682016040523d82523d6000602084013e6116ec565b606091505b50805161170e5760405160e560020a62461bcd02815260040161061190611b31565b805181602001fd5b600160e060020a0319167f150b7a02000000000000000000000000000000000000000000000000000000001490506110e0565b506001949350505050565b82805461176090611cae565b90600052602060002090601f01602090048101928261178257600085556117c8565b82601f1061179b57805160ff19168380011785556117c8565b828001600101855582156117c8579182015b828111156117c85782518255916020019190600101906117ad565b506117d49291506117d8565b5090565b5b808211156117d457600081556001016117d9565b600067ffffffffffffffff8084111561180857611808611d66565b604051601f8501601f19908116603f0116810190828211818310171561183057611830611d66565b8160405280935085815286868601111561184957600080fd5b858560208301376000602087830101525050509392505050565b8035600160a060020a038116811461187a57600080fd5b919050565b60006020828403121561189157600080fd5b610e9682611863565b600080604083850312156118ad57600080fd5b6118b683611863565b91506118c460208401611863565b90509250929050565b6000806000606084860312156118e257600080fd5b6118eb84611863565b92506118f960208501611863565b9150604084013590509250925092565b6000806000806080858703121561191f57600080fd5b61192885611863565b935061193660208601611863565b925060408501359150606085013567ffffffffffffffff81111561195957600080fd5b8501601f8101871361196a57600080fd5b611979878235602084016117ed565b91505092959194509250565b6000806040838503121561199857600080fd5b6119a183611863565b9150602083013580151581146119b657600080fd5b809150509250929050565b600080604083850312156119d457600080fd5b6119dd83611863565b946020939093013593505050565b6000602082840312156119fd57600080fd5b8135610e9681611d7f565b600060208284031215611a1a57600080fd5b8151610e9681611d7f565b600060208284031215611a3757600080fd5b813567ffffffffffffffff811115611a4e57600080fd5b8201601f81018413611a5f57600080fd5b6110e0848235602084016117ed565b600060208284031215611a8057600080fd5b5035919050565b60008151808452611a9f816020860160208601611c82565b601f01601f19169290920160200192915050565b60008351611ac5818460208801611c82565b835190830190611ad9818360208801611c82565b01949350505050565b6000600160a060020a03808716835280861660208401525083604083015260806060830152611b146080830184611a87565b9695505050505050565b602081526000610e966020830184611a87565b60208082526032908201527f4552433732313a207472616e7366657220746f206e6f6e20455243373231526560408201527f63656976657220696d706c656d656e7465720000000000000000000000000000606082015260800190565b6020808252818101527f4f776e61626c653a2063616c6c6572206973206e6f7420746865206f776e6572604082015260600190565b60208082526031908201527f4552433732313a207472616e736665722063616c6c6572206973206e6f74206f60408201527f776e6572206e6f7220617070726f766564000000000000000000000000000000606082015260800190565b60008219821115611c3357611c33611d1b565b500190565b600082611c4757611c47611d34565b500490565b6000816000190483118215151615611c6657611c66611d1b565b500290565b600082821015611c7d57611c7d611d1b565b500390565b60005b83811015611c9d578181015183820152602001611c85565b83811115610dab5750506000910152565b600281046001821680611cc257607f821691505b60208210811415611ce65760e060020a634e487b7102600052602260045260246000fd5b50919050565b6000600019821415611d0057611d00611d1b565b5060010190565b600082611d1657611d16611d34565b500690565b60e060020a634e487b7102600052601160045260246000fd5b60e060020a634e487b7102600052601260045260246000fd5b60e060020a634e487b7102600052603260045260246000fd5b60e060020a634e487b7102600052604160045260246000fd5b600160e060020a031981168114610f5257600080fdfea26469706673582212201255cb69cb9b25f0ca18420b64053df87a1d94edadd4177167650e87392cb24d64736f6c63430008060033",
  "immutableReferences": {},
  "source": "// SPDX-License-Identifier: MIT\npragma solidity 0.8.6;\n\nimport \"@openzeppelin/contracts/token/ERC721/ERC721.sol\";\nimport \"@openzeppelin/contracts/utils/Counters.sol\";\nimport \"@openzeppelin/contracts/access/Ownable.sol\";\n\ncontract Astropets is ERC721, Ownable {\n    using Counters for Counters.Counter;\n    Counters.Counter private _tokenIds;\n\n    uint256 private _maxSupply = 10000;\n\n    string public _provenanceHash;\n    string public _baseURL;\n\n    constructor() ERC721(\"Astropets\", \"ASPT\") {}\n\n    function mint(uint256 count) external payable {\n        require(_tokenIds.current() < _maxSupply, \"Can not mint more than max supply\");\n        require(count > 0 && count <= 20, \"You can mint between 1 and 20 at once\");\n        require(msg.value >= count * 0.03 ether, \"Insufficient payment\");\n        for (uint256 i = 0; i < count; i++) {\n            _tokenIds.increment();\n            _mint(msg.sender, _tokenIds.current());\n        }\n\n        bool success = false;\n        (success,) = owner().call{value : msg.value}(\"\");\n        require(success, \"Failed to send to owner\");\n    }\n\n    function setProvenanceHash(string memory provenanceHash) public onlyOwner {\n        _provenanceHash = provenanceHash;\n    }\n\n    function setBaseURL(string memory baseURI) public onlyOwner {\n        _baseURL = baseURI;\n    }\n\n    function _baseURI() internal view override returns (string memory) {\n        return _baseURL;\n    }\n\n    function maxSupply() public view returns (uint256) {\n        return _maxSupply;\n    }\n\n    function totalSupply() public view returns (uint256) {\n        return _tokenIds.current();\n    }\n}\n",
  "sourcePath": "/Users/macbook/projects/astropets/src/contracts/Astropets.sol",
  "compiler": {
    "name": "solc",
    "version": "0.8.6+commit.11564f7e.Emscripten.clang"
  },
  "schemaVersion": "3.4.3",
  "updatedAt": "2021-09-08T09:35:02.867Z",
  "devdoc": {
    "kind": "dev",
    "methods": {
      "approve(address,uint256)": {
        "details": "See {IERC721-approve}."
      },
      "balanceOf(address)": {
        "details": "See {IERC721-balanceOf}."
      },
      "getApproved(uint256)": {
        "details": "See {IERC721-getApproved}."
      },
      "isApprovedForAll(address,address)": {
        "details": "See {IERC721-isApprovedForAll}."
      },
      "name()": {
        "details": "See {IERC721Metadata-name}."
      },
      "owner()": {
        "details": "Returns the address of the current owner."
      },
      "ownerOf(uint256)": {
        "details": "See {IERC721-ownerOf}."
      },
      "renounceOwnership()": {
        "details": "Leaves the contract without owner. It will not be possible to call `onlyOwner` functions anymore. Can only be called by the current owner. NOTE: Renouncing ownership will leave the contract without an owner, thereby removing any functionality that is only available to the owner."
      },
      "safeTransferFrom(address,address,uint256)": {
        "details": "See {IERC721-safeTransferFrom}."
      },
      "safeTransferFrom(address,address,uint256,bytes)": {
        "details": "See {IERC721-safeTransferFrom}."
      },
      "setApprovalForAll(address,bool)": {
        "details": "See {IERC721-setApprovalForAll}."
      },
      "supportsInterface(bytes4)": {
        "details": "See {IERC165-supportsInterface}."
      },
      "symbol()": {
        "details": "See {IERC721Metadata-symbol}."
      },
      "tokenURI(uint256)": {
        "details": "See {IERC721Metadata-tokenURI}."
      },
      "transferFrom(address,address,uint256)": {
        "details": "See {IERC721-transferFrom}."
      },
      "transferOwnership(address)": {
        "details": "Transfers ownership of the contract to a new account (`newOwner`). Can only be called by the current owner."
      }
    },
    "version": 1
  },
  "userdoc": {
    "kind": "user",
    "methods": {},
    "version": 1
  }
}